{
  "_format": "hh-sol-artifact-1",
  "contractName": "Token",
  "sourceName": "contracts/Token.sol",
  "abi": [
    {
      "inputs": [],
      "stateMutability": "nonpayable",
      "type": "constructor"
    },
    {
      "inputs": [
        {
          "internalType": "address",
          "name": "account",
          "type": "address"
        }
      ],
      "name": "balanceOf",
      "outputs": [
        {
          "internalType": "uint256",
          "name": "",
          "type": "uint256"
        }
      ],
      "stateMutability": "view",
      "type": "function"
    },
    {
      "inputs": [],
      "name": "symbol",
      "outputs": [
        {
          "internalType": "string",
          "name": "",
          "type": "string"
        }
      ],
      "stateMutability": "view",
      "type": "function"
    },
    {
      "inputs": [],
      "name": "totalSupply",
      "outputs": [
        {
          "internalType": "uint256",
          "name": "",
          "type": "uint256"
        }
      ],
      "stateMutability": "view",
      "type": "function"
    },
    {
      "inputs": [
        {
          "internalType": "address",
          "name": "to",
          "type": "address"
        },
        {
          "internalType": "uint256",
          "name": "amount",
          "type": "uint256"
        }
      ],
      "name": "transfer",
      "outputs": [],
      "stateMutability": "nonpayable",
      "type": "function"
    }
  ],
  "bytecode": "0x60806040526040518060400160405280601281526020017f48616b65656d756c6c61687320746f6b656e00000000000000000000000000008152506000908051906020019061004f9291906100fb565b506040518060400160405280600381526020017f484a4a00000000000000000000000000000000000000000000000000000000008152506001908051906020019061009b9291906100fb565b50620f42406002553480156100af57600080fd5b50600254600360003373ffffffffffffffffffffffffffffffffffffffff1673ffffffffffffffffffffffffffffffffffffffff168152602001908152602001600020819055506101ff565b8280546101079061019e565b90600052602060002090601f0160209004810192826101295760008555610170565b82601f1061014257805160ff1916838001178555610170565b82800160010185558215610170579182015b8281111561016f578251825591602001919060010190610154565b5b50905061017d9190610181565b5090565b5b8082111561019a576000816000905550600101610182565b5090565b600060028204905060018216806101b657607f821691505b602082108114156101ca576101c96101d0565b5b50919050565b7f4e487b7100000000000000000000000000000000000000000000000000000000600052602260045260246000fd5b6106828061020e6000396000f3fe608060405234801561001057600080fd5b506004361061004c5760003560e01c806318160ddd1461005157806370a082311461006f57806395d89b411461009f578063a9059cbb146100bd575b600080fd5b6100596100d9565b6040516100669190610424565b60405180910390f35b61008960048036038101906100849190610312565b6100df565b6040516100969190610424565b60405180910390f35b6100a7610128565b6040516100b491906103e2565b60405180910390f35b6100d760048036038101906100d2919061033b565b6101b6565b005b60025481565b6000600360008373ffffffffffffffffffffffffffffffffffffffff1673ffffffffffffffffffffffffffffffffffffffff168152602001908152602001600020549050919050565b6001805461013590610554565b80601f016020809104026020016040519081016040528092919081815260200182805461016190610554565b80156101ae5780601f10610183576101008083540402835291602001916101ae565b820191906000526020600020905b81548152906001019060200180831161019157829003601f168201915b505050505081565b80600360003373ffffffffffffffffffffffffffffffffffffffff1673ffffffffffffffffffffffffffffffffffffffff168152602001908152602001600020541015610238576040517f08c379a000000000000000000000000000000000000000000000000000000000815260040161022f90610404565b60405180910390fd5b80600360003373ffffffffffffffffffffffffffffffffffffffff1673ffffffffffffffffffffffffffffffffffffffff168152602001908152602001600020600082825461028791906104b1565b9250508190555080600360008473ffffffffffffffffffffffffffffffffffffffff1673ffffffffffffffffffffffffffffffffffffffff16815260200190815260200160002060008282546102dd919061045b565b925050819055505050565b6000813590506102f78161061e565b92915050565b60008135905061030c81610635565b92915050565b60006020828403121561032457600080fd5b6000610332848285016102e8565b91505092915050565b6000806040838503121561034e57600080fd5b600061035c858286016102e8565b925050602061036d858286016102fd565b9150509250929050565b60006103828261043f565b61038c818561044a565b935061039c818560208601610521565b6103a5816105e4565b840191505092915050565b60006103bd60108361044a565b91506103c8826105f5565b602082019050919050565b6103dc81610517565b82525050565b600060208201905081810360008301526103fc8184610377565b905092915050565b6000602082019050818103600083015261041d816103b0565b9050919050565b600060208201905061043960008301846103d3565b92915050565b600081519050919050565b600082825260208201905092915050565b600061046682610517565b915061047183610517565b9250827fffffffffffffffffffffffffffffffffffffffffffffffffffffffffffffffff038211156104a6576104a5610586565b5b828201905092915050565b60006104bc82610517565b91506104c783610517565b9250828210156104da576104d9610586565b5b828203905092915050565b60006104f0826104f7565b9050919050565b600073ffffffffffffffffffffffffffffffffffffffff82169050919050565b6000819050919050565b60005b8381101561053f578082015181840152602081019050610524565b8381111561054e576000848401525b50505050565b6000600282049050600182168061056c57607f821691505b602082108114156105805761057f6105b5565b5b50919050565b7f4e487b7100000000000000000000000000000000000000000000000000000000600052601160045260246000fd5b7f4e487b7100000000000000000000000000000000000000000000000000000000600052602260045260246000fd5b6000601f19601f8301169050919050565b7f4e6f7420656e6f75676820746f6b656e00000000000000000000000000000000600082015250565b610627816104e5565b811461063257600080fd5b50565b61063e81610517565b811461064957600080fd5b5056fea264697066735822122053926533695646b207f06d4b3667c222dc2cdaa4ff8840e89cfa447c06794d7e64736f6c63430008030033",
  "linkReferences": {},
  "deployedLinkReferences": {}
}